{
  "contractName": "MachineToMachine",
  "abi": [
    {
      "inputs": [],
      "payable": false,
      "stateMutability": "nonpayable",
      "type": "constructor"
    },
    {
      "constant": true,
      "inputs": [
        {
          "internalType": "uint256",
          "name": "",
          "type": "uint256"
        }
      ],
      "name": "firstMachineRecordings",
      "outputs": [
        {
          "internalType": "string",
          "name": "data",
          "type": "string"
        },
        {
          "internalType": "bool",
          "name": "on",
          "type": "bool"
        }
      ],
      "payable": false,
      "stateMutability": "view",
      "type": "function"
    },
    {
      "constant": true,
      "inputs": [],
      "name": "fmCount",
      "outputs": [
        {
          "internalType": "uint256",
          "name": "",
          "type": "uint256"
        }
      ],
      "payable": false,
      "stateMutability": "view",
      "type": "function"
    },
    {
      "constant": true,
      "inputs": [
        {
          "internalType": "uint256",
          "name": "",
          "type": "uint256"
        }
      ],
      "name": "secondMachineRecordings",
      "outputs": [
        {
          "internalType": "string",
          "name": "data",
          "type": "string"
        },
        {
          "internalType": "bool",
          "name": "on",
          "type": "bool"
        }
      ],
      "payable": false,
      "stateMutability": "view",
      "type": "function"
    },
    {
      "constant": true,
      "inputs": [],
      "name": "smCount",
      "outputs": [
        {
          "internalType": "uint256",
          "name": "",
          "type": "uint256"
        }
      ],
      "payable": false,
      "stateMutability": "view",
      "type": "function"
    },
    {
      "constant": true,
      "inputs": [
        {
          "internalType": "string",
          "name": "a",
          "type": "string"
        },
        {
          "internalType": "string",
          "name": "b",
          "type": "string"
        }
      ],
      "name": "compareStrings",
      "outputs": [
        {
          "internalType": "bool",
          "name": "",
          "type": "bool"
        }
      ],
      "payable": false,
      "stateMutability": "view",
      "type": "function"
    },
    {
      "constant": true,
      "inputs": [
        {
          "internalType": "string",
          "name": "a",
          "type": "string"
        },
        {
          "internalType": "string",
          "name": "b",
          "type": "string"
        }
      ],
      "name": "lessThan",
      "outputs": [
        {
          "internalType": "bool",
          "name": "",
          "type": "bool"
        }
      ],
      "payable": false,
      "stateMutability": "view",
      "type": "function"
    },
    {
      "constant": true,
      "inputs": [
        {
          "internalType": "string",
          "name": "a",
          "type": "string"
        },
        {
          "internalType": "string",
          "name": "b",
          "type": "string"
        }
      ],
      "name": "greaterThan",
      "outputs": [
        {
          "internalType": "bool",
          "name": "",
          "type": "bool"
        }
      ],
      "payable": false,
      "stateMutability": "view",
      "type": "function"
    },
    {
      "constant": false,
      "inputs": [
        {
          "internalType": "string",
          "name": "machine",
          "type": "string"
        },
        {
          "internalType": "string",
          "name": "data",
          "type": "string"
        }
      ],
      "name": "addData",
      "outputs": [],
      "payable": false,
      "stateMutability": "nonpayable",
      "type": "function"
    }
  ],
  "bytecode": "0x608060405234801561001057600080fd5b5060006002819055506000600381905550610cb2806100306000396000f3fe608060405234801561001057600080fd5b50600436106100885760003560e01c8063e079c04d1161005b578063e079c04d14610115578063e49432f314610145578063e75ad2d614610176578063ef7e0886146101a657610088565b8063528407e51461008d57806367e7c84e146100a9578063a851e9c2146100c7578063bed34bba146100e5575b600080fd5b6100a760048036036100a291908101906109ca565b6101d7565b005b6100b1610613565b6040516100be9190610b49565b60405180910390f35b6100cf610619565b6040516100dc9190610b49565b60405180910390f35b6100ff60048036036100fa91908101906109ca565b61061f565b60405161010c9190610afe565b60405180910390f35b61012f600480360361012a91908101906109ca565b610678565b60405161013c9190610afe565b60405180910390f35b61015f600480360361015a9190810190610a36565b6106d1565b60405161016d929190610b19565b60405180910390f35b610190600480360361018b91908101906109ca565b61079a565b60405161019d9190610afe565b60405180910390f35b6101c060048036036101bb9190810190610a36565b6107f3565b6040516101ce929190610b19565b60405180910390f35b610216826040518060400160405280600281526020017f666d00000000000000000000000000000000000000000000000000000000000081525061061f565b1561056857604051806040016040528082815260200160011515815250600080600254815260200190815260200160002060008201518160000190805190602001906102639291906108bc565b5060208201518160010160006101000a81548160ff0219169083151502179055509050506002600081548092919060010191905055506102d8816040518060400160405280600281526020017f3232000000000000000000000000000000000000000000000000000000000000815250610678565b156103fe5760405180604001604052806001600060016003540381526020019081526020016000206000018054600181600116156101000203166002900480601f0160208091040260200160405190810160405280929190818152602001828054600181600116156101000203166002900480156103975780601f1061036c57610100808354040283529160200191610397565b820191906000526020600020905b81548152906001019060200180831161037a57829003601f168201915b505050505081526020016000151581525060016000600354815260200190815260200160002060008201518160000190805190602001906103d99291906108bc565b5060208201518160010160006101000a81548160ff0219169083151502179055509050505b61043d816040518060400160405280600281526020017f323800000000000000000000000000000000000000000000000000000000000081525061079a565b156105635760405180604001604052806001600060016003540381526020019081526020016000206000018054600181600116156101000203166002900480601f0160208091040260200160405190810160405280929190818152602001828054600181600116156101000203166002900480156104fc5780601f106104d1576101008083540402835291602001916104fc565b820191906000526020600020905b8154815290600101906020018083116104df57829003601f168201915b5050505050815260200160011515815250600160006003548152602001908152602001600020600082015181600001908051906020019061053e9291906108bc565b5060208201518160010160006101000a81548160ff0219169083151502179055509050505b61060f565b604051806040016040528082815260200160016000600160035403815260200190815260200160002060010160009054906101000a900460ff16151581525060016000600354815260200190815260200160002060008201518160000190805190602001906105d89291906108bc565b5060208201518160010160006101000a81548160ff0219169083151502179055509050506003600081548092919060010191905055505b5050565b60035481565b60025481565b6000816040516020016106329190610ae7565b60405160208183030381529060405280519060200120836040516020016106599190610ae7565b6040516020818303038152906040528051906020012014905092915050565b60008160405160200161068b9190610ae7565b60405160208183030381529060405280519060200120836040516020016106b29190610ae7565b6040516020818303038152906040528051906020012010905092915050565b6000602052806000526040600020600091509050806000018054600181600116156101000203166002900480601f01602080910402602001604051908101604052809291908181526020018280546001816001161561010002031660029004801561077d5780601f106107525761010080835404028352916020019161077d565b820191906000526020600020905b81548152906001019060200180831161076057829003601f168201915b5050505050908060010160009054906101000a900460ff16905082565b6000816040516020016107ad9190610ae7565b60405160208183030381529060405280519060200120836040516020016107d49190610ae7565b6040516020818303038152906040528051906020012011905092915050565b6001602052806000526040600020600091509050806000018054600181600116156101000203166002900480601f01602080910402602001604051908101604052809291908181526020018280546001816001161561010002031660029004801561089f5780601f106108745761010080835404028352916020019161089f565b820191906000526020600020905b81548152906001019060200180831161088257829003601f168201915b5050505050908060010160009054906101000a900460ff16905082565b828054600181600116156101000203166002900490600052602060002090601f016020900481019282601f106108fd57805160ff191683800117855561092b565b8280016001018555821561092b579182015b8281111561092a57825182559160200191906001019061090f565b5b509050610938919061093c565b5090565b61095e91905b8082111561095a576000816000905550600101610942565b5090565b90565b600082601f83011261097257600080fd5b813561098561098082610b91565b610b64565b915080825260208301602083018583830111156109a157600080fd5b6109ac838284610c05565b50505092915050565b6000813590506109c481610c58565b92915050565b600080604083850312156109dd57600080fd5b600083013567ffffffffffffffff8111156109f757600080fd5b610a0385828601610961565b925050602083013567ffffffffffffffff811115610a2057600080fd5b610a2c85828601610961565b9150509250929050565b600060208284031215610a4857600080fd5b6000610a56848285016109b5565b91505092915050565b610a6881610bef565b82525050565b6000610a7982610bc8565b610a838185610be4565b9350610a93818560208601610c14565b80840191505092915050565b6000610aaa82610bbd565b610ab48185610bd3565b9350610ac4818560208601610c14565b610acd81610c47565b840191505092915050565b610ae181610bfb565b82525050565b6000610af38284610a6e565b915081905092915050565b6000602082019050610b136000830184610a5f565b92915050565b60006040820190508181036000830152610b338185610a9f565b9050610b426020830184610a5f565b9392505050565b6000602082019050610b5e6000830184610ad8565b92915050565b6000604051905081810181811067ffffffffffffffff82111715610b8757600080fd5b8060405250919050565b600067ffffffffffffffff821115610ba857600080fd5b601f19601f8301169050602081019050919050565b600081519050919050565b600081519050919050565b600082825260208201905092915050565b600081905092915050565b60008115159050919050565b6000819050919050565b82818337600083830152505050565b60005b83811015610c32578082015181840152602081019050610c17565b83811115610c41576000848401525b50505050565b6000601f19601f8301169050919050565b610c6181610bfb565b8114610c6c57600080fd5b5056fea365627a7a723158204a52389e0f58d5fedbce0ac7895f53241aee6875e0f5d608aa04089cadce3d196c6578706572696d656e74616cf564736f6c63430005100040",
  "source": "// SPDX-License-Identifier: MIT\npragma solidity >=0.4.22 <0.8.0;\npragma experimental ABIEncoderV2;\n\ncontract MachineToMachine {\n    struct Data {\n        string data;\n        bool on;\n    }\n\n    mapping(uint256 => Data) public firstMachineRecordings;\n    mapping(uint256 => Data) public secondMachineRecordings;\n    uint256 public fmCount;\n    uint256 public smCount;\n\n    constructor() public {\n        fmCount = 0;\n        smCount = 0;\n    }\n\n    function compareStrings(string memory a, string memory b)\n        public\n        view\n        returns (bool)\n    {\n        return (keccak256(abi.encodePacked((a))) ==\n            keccak256(abi.encodePacked((b))));\n    }\n\n    function lessThan(string memory a, string memory b)\n        public\n        view\n        returns (bool)\n    {\n        return (keccak256(abi.encodePacked((a))) <\n            keccak256(abi.encodePacked((b))));\n    }\n\n    function greaterThan(string memory a, string memory b)\n        public\n        view\n        returns (bool)\n    {\n        return (keccak256(abi.encodePacked((a))) >\n            keccak256(abi.encodePacked((b))));\n    }\n\n    function addData(string memory machine, string memory data) public {\n        if (compareStrings(machine, \"fm\")) {\n            firstMachineRecordings[fmCount] = Data(data, true);\n            fmCount++;\n\n            if (lessThan(data, \"22\")) {\n                secondMachineRecordings[smCount] = Data(\n                    secondMachineRecordings[smCount - 1].data,\n                    false\n                );\n            }\n\n            if (greaterThan(data, \"28\")) {\n                secondMachineRecordings[smCount] = Data(\n                    secondMachineRecordings[smCount - 1].data,\n                    true\n                );\n            }\n        } else {\n            secondMachineRecordings[smCount] = Data(\n                data,\n                secondMachineRecordings[smCount - 1].on\n            );\n            smCount++;\n        }\n    }\n}\n",
  "sourcePath": "/Users/nisa/Desktop/P4P/smart-contract-client/contracts/MachineToMachine.sol",
  "compiler": {
    "name": "solc",
    "version": "0.5.16+commit.9c3226ce.Emscripten.clang"
  },
  "schemaVersion": "3.3.1",
  "updatedAt": "2020-10-21T19:03:11.718Z",
  "devdoc": {
    "methods": {}
  },
  "userdoc": {
    "methods": {}
  }
}