{
  "contractName": "NewSmartHome",
  "abi": [
    {
      "inputs": [],
      "payable": false,
      "stateMutability": "nonpayable",
      "type": "constructor"
    },
    {
      "constant": true,
      "inputs": [],
      "name": "count",
      "outputs": [
        {
          "internalType": "uint256",
          "name": "",
          "type": "uint256"
        }
      ],
      "payable": false,
      "stateMutability": "view",
      "type": "function"
    },
    {
      "constant": true,
      "inputs": [
        {
          "internalType": "uint256",
          "name": "",
          "type": "uint256"
        }
      ],
      "name": "readings",
      "outputs": [
        {
          "internalType": "string",
          "name": "id",
          "type": "string"
        },
        {
          "internalType": "string",
          "name": "data",
          "type": "string"
        },
        {
          "internalType": "uint256",
          "name": "timeStamp",
          "type": "uint256"
        }
      ],
      "payable": false,
      "stateMutability": "view",
      "type": "function"
    },
    {
      "constant": false,
      "inputs": [
        {
          "internalType": "string",
          "name": "id",
          "type": "string"
        },
        {
          "internalType": "string",
          "name": "data",
          "type": "string"
        },
        {
          "internalType": "uint256",
          "name": "timeStamp",
          "type": "uint256"
        }
      ],
      "name": "addData",
      "outputs": [],
      "payable": false,
      "stateMutability": "nonpayable",
      "type": "function"
    },
    {
      "constant": true,
      "inputs": [],
      "name": "getData",
      "outputs": [
        {
          "components": [
            {
              "internalType": "string",
              "name": "id",
              "type": "string"
            },
            {
              "internalType": "string",
              "name": "data",
              "type": "string"
            },
            {
              "internalType": "uint256",
              "name": "timeStamp",
              "type": "uint256"
            }
          ],
          "internalType": "struct NewSmartHome.Data[]",
          "name": "",
          "type": "tuple[]"
        }
      ],
      "payable": false,
      "stateMutability": "view",
      "type": "function"
    }
  ],
  "bytecode": "0x608060405234801561001057600080fd5b5060006001819055506109f6806100286000396000f3fe608060405234801561001057600080fd5b506004361061004c5760003560e01c806306661abd146100515780633bc5de301461006f5780637deffc6a1461008d578063d5da886d146100a9575b600080fd5b6100596100db565b6040516100669190610865565b60405180910390f35b6100776100e1565b60405161008491906107fe565b60405180910390f35b6100a760048036036100a291908101906105e6565b6102d0565b005b6100c360048036036100be9190810190610665565b61035d565b6040516100d293929190610820565b60405180910390f35b60015481565b60608060015460405190808252806020026020018201604052801561012057816020015b61010d6104b7565b8152602001906001900390816101055790505b50905060008090505b6001548110156102c8576000806000838152602001908152602001600020905080604051806060016040529081600082018054600181600116156101000203166002900480601f0160208091040260200160405190810160405280929190818152602001828054600181600116156101000203166002900480156101ee5780601f106101c3576101008083540402835291602001916101ee565b820191906000526020600020905b8154815290600101906020018083116101d157829003601f168201915b50505050508152602001600182018054600181600116156101000203166002900480601f0160208091040260200160405190810160405280929190818152602001828054600181600116156101000203166002900480156102905780601f1061026557610100808354040283529160200191610290565b820191906000526020600020905b81548152906001019060200180831161027357829003601f168201915b505050505081526020016002820154815250508383815181106102af57fe5b6020026020010181905250508080600101915050610129565b508091505090565b6040518060600160405280848152602001838152602001828152506000806001548152602001908152602001600020600082015181600001908051906020019061031b9291906104d8565b5060208201518160010190805190602001906103389291906104d8565b5060408201518160020155905050600160008154809291906001019190505550505050565b6000602052806000526040600020600091509050806000018054600181600116156101000203166002900480601f0160208091040260200160405190810160405280929190818152602001828054600181600116156101000203166002900480156104095780601f106103de57610100808354040283529160200191610409565b820191906000526020600020905b8154815290600101906020018083116103ec57829003601f168201915b505050505090806001018054600181600116156101000203166002900480601f0160208091040260200160405190810160405280929190818152602001828054600181600116156101000203166002900480156104a75780601f1061047c576101008083540402835291602001916104a7565b820191906000526020600020905b81548152906001019060200180831161048a57829003601f168201915b5050505050908060020154905083565b60405180606001604052806060815260200160608152602001600081525090565b828054600181600116156101000203166002900490600052602060002090601f016020900481019282601f1061051957805160ff1916838001178555610547565b82800160010185558215610547579182015b8281111561054657825182559160200191906001019061052b565b5b5090506105549190610558565b5090565b61057a91905b8082111561057657600081600090555060010161055e565b5090565b90565b600082601f83011261058e57600080fd5b81356105a161059c826108ad565b610880565b915080825260208301602083018583830111156105bd57600080fd5b6105c8838284610949565b50505092915050565b6000813590506105e08161099c565b92915050565b6000806000606084860312156105fb57600080fd5b600084013567ffffffffffffffff81111561061557600080fd5b6106218682870161057d565b935050602084013567ffffffffffffffff81111561063e57600080fd5b61064a8682870161057d565b925050604061065b868287016105d1565b9150509250925092565b60006020828403121561067757600080fd5b6000610685848285016105d1565b91505092915050565b600061069a8383610789565b905092915050565b60006106ad826108e9565b6106b7818561090c565b9350836020820285016106c9856108d9565b8060005b8581101561070557848403895281516106e6858261068e565b94506106f1836108ff565b925060208a019950506001810190506106cd565b50829750879550505050505092915050565b6000610722826108f4565b61072c818561091d565b935061073c818560208601610958565b6107458161098b565b840191505092915050565b600061075b826108f4565b610765818561092e565b9350610775818560208601610958565b61077e8161098b565b840191505092915050565b600060608301600083015184820360008601526107a68282610717565b915050602083015184820360208601526107c08282610717565b91505060408301516107d560408601826107e0565b508091505092915050565b6107e98161093f565b82525050565b6107f88161093f565b82525050565b6000602082019050818103600083015261081881846106a2565b905092915050565b6000606082019050818103600083015261083a8186610750565b9050818103602083015261084e8185610750565b905061085d60408301846107ef565b949350505050565b600060208201905061087a60008301846107ef565b92915050565b6000604051905081810181811067ffffffffffffffff821117156108a357600080fd5b8060405250919050565b600067ffffffffffffffff8211156108c457600080fd5b601f19601f8301169050602081019050919050565b6000819050602082019050919050565b600081519050919050565b600081519050919050565b6000602082019050919050565b600082825260208201905092915050565b600082825260208201905092915050565b600082825260208201905092915050565b6000819050919050565b82818337600083830152505050565b60005b8381101561097657808201518184015260208101905061095b565b83811115610985576000848401525b50505050565b6000601f19601f8301169050919050565b6109a58161093f565b81146109b057600080fd5b5056fea365627a7a723158203ddcf6f1902834ee338f1b1524cd5747d8a5b104b58a083808122d6563cf62a06c6578706572696d656e74616cf564736f6c63430005100040",
  "source": "// SPDX-License-Identifier: MIT\npragma solidity >=0.4.22 <0.8.0;\npragma experimental ABIEncoderV2;\n\ncontract NewSmartHome {\n    struct Data {\n        string id;\n        string data;\n        uint256 timeStamp;\n    }\n\n    mapping(uint256 => Data) public readings;\n    uint256 public count;\n\n    constructor() public {\n        count = 0;\n    }\n\n    function addData(\n        string memory id,\n        string memory data,\n        uint256 timeStamp\n    ) public {\n        readings[count] = Data(id, data, timeStamp);\n        count++;\n    }\n\n    function getData() public view returns (Data[] memory) {\n        Data[] memory id = new Data[](count);\n        for (uint256 i = 0; i < count; i++) {\n            Data storage data = readings[i];\n            id[i] = data;\n        }\n\n        return id;\n    }\n}\n",
  "sourcePath": "/Users/nisa/Desktop/P4P/smart-contract-client/contracts/NewSmartHome.sol",
  "compiler": {
    "name": "solc",
    "version": "0.5.16+commit.9c3226ce.Emscripten.clang"
  },
  "schemaVersion": "3.3.1",
  "updatedAt": "2020-10-22T22:18:16.873Z",
  "networkType": "ethereum",
  "devdoc": {
    "methods": {}
  },
  "userdoc": {
    "methods": {}
  }
}