{
  "contractName": "SmartHome",
  "abi": [
    {
      "inputs": [],
      "payable": false,
      "stateMutability": "nonpayable",
      "type": "constructor"
    },
    {
      "constant": true,
      "inputs": [
        {
          "internalType": "uint256",
          "name": "",
          "type": "uint256"
        }
      ],
      "name": "readings",
      "outputs": [
        {
          "internalType": "uint256",
          "name": "temperature",
          "type": "uint256"
        },
        {
          "internalType": "uint256",
          "name": "timeStamp",
          "type": "uint256"
        }
      ],
      "payable": false,
      "stateMutability": "view",
      "type": "function"
    },
    {
      "constant": true,
      "inputs": [],
      "name": "solarCount",
      "outputs": [
        {
          "internalType": "uint256",
          "name": "",
          "type": "uint256"
        }
      ],
      "payable": false,
      "stateMutability": "view",
      "type": "function"
    },
    {
      "constant": true,
      "inputs": [
        {
          "internalType": "uint256",
          "name": "",
          "type": "uint256"
        }
      ],
      "name": "solarReadings",
      "outputs": [
        {
          "internalType": "string",
          "name": "data",
          "type": "string"
        },
        {
          "internalType": "uint256",
          "name": "timeStamp",
          "type": "uint256"
        }
      ],
      "payable": false,
      "stateMutability": "view",
      "type": "function"
    },
    {
      "constant": true,
      "inputs": [],
      "name": "tempCount",
      "outputs": [
        {
          "internalType": "uint256",
          "name": "",
          "type": "uint256"
        }
      ],
      "payable": false,
      "stateMutability": "view",
      "type": "function"
    },
    {
      "constant": false,
      "inputs": [
        {
          "internalType": "uint256",
          "name": "temp",
          "type": "uint256"
        },
        {
          "internalType": "uint256",
          "name": "timeStamp",
          "type": "uint256"
        }
      ],
      "name": "addTemp",
      "outputs": [],
      "payable": false,
      "stateMutability": "nonpayable",
      "type": "function"
    },
    {
      "constant": true,
      "inputs": [],
      "name": "getTemps",
      "outputs": [
        {
          "components": [
            {
              "internalType": "uint256",
              "name": "temperature",
              "type": "uint256"
            },
            {
              "internalType": "uint256",
              "name": "timeStamp",
              "type": "uint256"
            }
          ],
          "internalType": "struct SmartHome.SensorData[]",
          "name": "",
          "type": "tuple[]"
        }
      ],
      "payable": false,
      "stateMutability": "view",
      "type": "function"
    },
    {
      "constant": false,
      "inputs": [
        {
          "internalType": "string",
          "name": "data",
          "type": "string"
        },
        {
          "internalType": "uint256",
          "name": "timeStamp",
          "type": "uint256"
        }
      ],
      "name": "addSolarData",
      "outputs": [],
      "payable": false,
      "stateMutability": "nonpayable",
      "type": "function"
    },
    {
      "constant": true,
      "inputs": [],
      "name": "getSolarData",
      "outputs": [
        {
          "components": [
            {
              "internalType": "string",
              "name": "data",
              "type": "string"
            },
            {
              "internalType": "uint256",
              "name": "timeStamp",
              "type": "uint256"
            }
          ],
          "internalType": "struct SmartHome.SolarData[]",
          "name": "",
          "type": "tuple[]"
        }
      ],
      "payable": false,
      "stateMutability": "view",
      "type": "function"
    }
  ],
  "bytecode": "0x608060405234801561001057600080fd5b5060006001819055506000600381905550610bab806100306000396000f3fe608060405234801561001057600080fd5b50600436106100885760003560e01c8063c9c24c2b1161005b578063c9c24c2b14610118578063d5da886d14610136578063e095a36914610167578063f432cb901461018357610088565b80630feafba61461008d5780636d497a83146100ab578063984619ee146100dc578063c0d27b35146100fa575b600080fd5b61009561019f565b6040516100a29190610944565b60405180910390f35b6100c560048036036100c091908101906106e4565b610254565b6040516100d3929190610988565b60405180910390f35b6100e4610310565b6040516100f19190610966565b60405180910390f35b61010261045e565b60405161010f91906109b8565b60405180910390f35b610120610464565b60405161012d91906109b8565b60405180910390f35b610150600480360361014b91908101906106e4565b61046a565b60405161015e9291906109d3565b60405180910390f35b610181600480360361017c9190810190610690565b61048e565b005b61019d6004803603610198919081019061070d565b6104f8565b005b6060806001546040519080825280602002602001820160405280156101de57816020015b6101cb61054e565b8152602001906001900390816101c35790505b50905060008090505b60015481101561024c5760008060008381526020019081526020016000209050806040518060400160405290816000820154815260200160018201548152505083838151811061023357fe5b60200260200101819052505080806001019150506101e7565b508091505090565b6002602052806000526040600020600091509050806000018054600181600116156101000203166002900480601f0160208091040260200160405190810160405280929190818152602001828054600181600116156101000203166002900480156103005780601f106102d557610100808354040283529160200191610300565b820191906000526020600020905b8154815290600101906020018083116102e357829003601f168201915b5050505050908060010154905082565b60608060035460405190808252806020026020018201604052801561034f57816020015b61033c610568565b8152602001906001900390816103345790505b50905060008090505b60035481101561045657600060026000838152602001908152602001600020905080604051806040016040529081600082018054600181600116156101000203166002900480601f01602080910402602001604051908101604052809291908181526020018280546001816001161561010002031660029004801561041e5780601f106103f35761010080835404028352916020019161041e565b820191906000526020600020905b81548152906001019060200180831161040157829003601f168201915b5050505050815260200160018201548152505083838151811061043d57fe5b6020026020010181905250508080600101915050610358565b508091505090565b60015481565b60035481565b60006020528060005260406000206000915090508060000154908060010154905082565b60405180604001604052808381526020018281525060026000600354815260200190815260200160002060008201518160000190805190602001906104d4929190610582565b50602082015181600101559050506003600081548092919060010191905055505050565b604051806040016040528083815260200182815250600080600154815260200190815260200160002060008201518160000155602082015181600101559050506001600081548092919060010191905055505050565b604051806040016040528060008152602001600081525090565b604051806040016040528060608152602001600081525090565b828054600181600116156101000203166002900490600052602060002090601f016020900481019282601f106105c357805160ff19168380011785556105f1565b828001600101855582156105f1579182015b828111156105f05782518255916020019190600101906105d5565b5b5090506105fe9190610602565b5090565b61062491905b80821115610620576000816000905550600101610608565b5090565b90565b600082601f83011261063857600080fd5b813561064b61064682610a29565b6109fc565b9150808252602083016020830185838301111561066757600080fd5b610672838284610afe565b50505092915050565b60008135905061068a81610b51565b92915050565b600080604083850312156106a357600080fd5b600083013567ffffffffffffffff8111156106bd57600080fd5b6106c985828601610627565b92505060206106da8582860161067b565b9150509250929050565b6000602082840312156106f657600080fd5b60006107048482850161067b565b91505092915050565b6000806040838503121561072057600080fd5b600061072e8582860161067b565b925050602061073f8582860161067b565b9150509250929050565b600061075583836108ba565b60408301905092915050565b600061076d83836108e9565b905092915050565b600061078082610a75565b61078a8185610ab0565b935061079583610a55565b8060005b838110156107c65781516107ad8882610749565b97506107b883610a96565b925050600181019050610799565b5085935050505092915050565b60006107de82610a80565b6107e88185610ac1565b9350836020820285016107fa85610a65565b8060005b8581101561083657848403895281516108178582610761565b945061082283610aa3565b925060208a019950506001810190506107fe565b50829750879550505050505092915050565b600061085382610a8b565b61085d8185610ad2565b935061086d818560208601610b0d565b61087681610b40565b840191505092915050565b600061088c82610a8b565b6108968185610ae3565b93506108a6818560208601610b0d565b6108af81610b40565b840191505092915050565b6040820160008201516108d06000850182610926565b5060208201516108e36020850182610926565b50505050565b600060408301600083015184820360008601526109068282610848565b915050602083015161091b6020860182610926565b508091505092915050565b61092f81610af4565b82525050565b61093e81610af4565b82525050565b6000602082019050818103600083015261095e8184610775565b905092915050565b6000602082019050818103600083015261098081846107d3565b905092915050565b600060408201905081810360008301526109a28185610881565b90506109b16020830184610935565b9392505050565b60006020820190506109cd6000830184610935565b92915050565b60006040820190506109e86000830185610935565b6109f56020830184610935565b9392505050565b6000604051905081810181811067ffffffffffffffff82111715610a1f57600080fd5b8060405250919050565b600067ffffffffffffffff821115610a4057600080fd5b601f19601f8301169050602081019050919050565b6000819050602082019050919050565b6000819050602082019050919050565b600081519050919050565b600081519050919050565b600081519050919050565b6000602082019050919050565b6000602082019050919050565b600082825260208201905092915050565b600082825260208201905092915050565b600082825260208201905092915050565b600082825260208201905092915050565b6000819050919050565b82818337600083830152505050565b60005b83811015610b2b578082015181840152602081019050610b10565b83811115610b3a576000848401525b50505050565b6000601f19601f8301169050919050565b610b5a81610af4565b8114610b6557600080fd5b5056fea365627a7a72315820111bab97f3bb3cb1ad3b73125ee81f9c2f44ecfd53758349a72e144b21da996c6c6578706572696d656e74616cf564736f6c63430005100040",
  "source": "// SPDX-License-Identifier: MIT\npragma solidity >=0.4.22 <0.8.0;\npragma experimental ABIEncoderV2;\n\ncontract SmartHome {\n    struct SensorData {\n        uint256 temperature;\n        uint256 timeStamp;\n    }\n\n    struct SolarData {\n        string data;\n        uint256 timeStamp;\n    }\n\n    mapping(uint256 => SensorData) public readings;\n    uint256 public tempCount;\n\n    mapping(uint256 => SolarData) public solarReadings;\n    uint256 public solarCount;\n\n    constructor() public {\n        tempCount = 0;\n        solarCount = 0;\n    }\n\n    function addTemp(uint256 temp, uint256 timeStamp) public {\n        readings[tempCount] = SensorData(temp, timeStamp);\n\n        tempCount++;\n    }\n\n    function getTemps() public view returns (SensorData[] memory) {\n        SensorData[] memory id = new SensorData[](tempCount);\n\n        for (uint256 i = 0; i < tempCount; i++) {\n            SensorData storage data = readings[i];\n            id[i] = data;\n        }\n\n        return id;\n    }\n\n    function addSolarData(string memory data, uint256 timeStamp) public {\n        solarReadings[solarCount] = SolarData(data, timeStamp);\n        solarCount++;\n    }\n\n    function getSolarData() public view returns (SolarData[] memory) {\n        SolarData[] memory id = new SolarData[](solarCount);\n\n        for (uint256 i = 0; i < solarCount; i++) {\n            SolarData storage data = solarReadings[i];\n            id[i] = data;\n        }\n\n        return id;\n    }\n}\n",
  "sourcePath": "/Users/nisa/Desktop/P4P/smart-contract-client/contracts/SmartHome.sol",
  "compiler": {
    "name": "solc",
    "version": "0.5.16+commit.9c3226ce.Emscripten.clang"
  },
  "schemaVersion": "3.3.1",
  "updatedAt": "2020-10-22T22:18:16.870Z",
  "networkType": "ethereum",
  "devdoc": {
    "methods": {}
  },
  "userdoc": {
    "methods": {}
  }
}